:020000040800F2
:10C00000A80F00209DC10008D3CE00088DCE0008E7
:10C01000CFCE00083BC2000849F100080000000034
:10C02000000000000000000000000000C1D1000876
:10C03000DDCC000800000000D1CF0008B1D200081C
:10C04000B7C10008B7C10008B7C10008B7C10008F0
:10C05000B7C10008B7C10008B7C10008B7C10008E0
:10C06000B7C10008B7C10008B7C10008B7C10008D0
:10C07000B7C10008B7C10008B7C10008B7C10008C0
:10C08000B7C10008B7C10008B7C10008B7C10008B0
:10C09000B7C10008B7C10008B7C10008B7C10008A0
:10C0A000B7C10008B7C10008B7C10008B7C1000890
:10C0B000B7C10008B7C10008B7C10008B7C1000880
:10C0C000B7C10008B7C10008B7C10008B7C1000870
:10C0D000B7C10008B7C10008B7C10008B7C1000860
:10C0E000B7C10008B7C1000871CF0008B7C1000888
:10C0F000B7C10008B7C10008B7C10008B7C1000840
:10C10000B7C10008B7C10008B7C10008B7C100082F
:10C11000B7C10008B7C10008B7C10008B7C100081F
:10C12000B7C10008B7C10008B7C10008B7C100080F
:10C13000B7C10008B7C10008B7C10008B7C10008FF
:10C14000B7C10008B7C10008B7C1000861CF000837
:10C15000B7C10008B7C10008B7C10008B7C10008DF
:10C16000B7C10008B7C10008B7C10008B7C10008CF
:10C17000B7C10008B7C10008B7C10008B7C10008BF
:10C18000B7C10008B7C10008DFF80CD000F018F8FC
:10C190000048004779F10008A80F002006488047B2
:10C1A00006480047FEE7FEE7FEE7FEE7FEE7FEE79C
:10C1B000FEE7FEE7FEE7FEE7B5D2000889C100080A
:10C1C000064C074D06E0E06840F0010394E80700E4
:10C1D00098471034AC42F6D3FFF7DAFFA4F1000819
:10C1E000C4F1000870B58C1810F8015B15F0070356
:10C1F00001D110F8013B2A1106D110F8012B03E000
:10C2000010F8016B01F8016B5B1EF9D12B0705D407
:10C210000023521E0DD401F8013BFAE710F8013B50
:10C22000CB1A921C03E013F8015B01F8015B521E6C
:10C23000F9D5A142D8D3002070BD00BFFEE770B58C
:10C2400006460C4604F08000802808D104F07F00E8
:10C2500000EB800106F58E7000EBC10507E004F0ED
:10C260007F0000EB800106F55D7000EBC10504F076
:10C270007F00287004F08000C009687029463046AD
:10C2800002F0DFFB002070BD70B506460C4604F0DE
:10C290008000802808D104F07F0000EB800106F5C3
:10C2A0008E7000EBC10505E004EB840106F55D70BE
:10C2B00000EBC1050020A87004F07F002870C4F3D3
:10C2C000C01068702946304602F093FB002070BD14
:10C2D00070B505460C4604F08000802805D104F0B6
:10C2E0007F01284602F0CAFD02E0284602F0A0FDC8
:10C2F000002070BD2DE9F04106460D4690461F46D0
:10C3000005F08000802808D105F07F0000EB800157
:10C3100006F58E7000EBC10407E005F07F0000EB2E
:10C32000800106F55D7000EBC10405F07F00207010
:10C3300005F08000C0096070C4F80880E77060787C
:10C3400008B12078E080022F01D100202071214621
:10C35000304602F002FB0020BDE8F0812DE9F041FB
:10C3600005460E461746984606F07F0000EB800112
:10C3700005F55D7000EBC104E760C4F8148000208F
:10C38000A061607006F07F002070E878012800D17D
:10C390002761207820B92146284602F002FA03E0FE
:10C3A0002146284602F0CCFB0020BDE8F08108B50C
:10C3B00000220092009A61F30A1200920269126848
:10C3C000009B1A4303691A6008BD70B506460C4607
:10C3D00004F08000802808D104F07F0000EB800189
:10C3E00006F58E7000EBC10505E004EB840106F54F
:10C3F0005D7000EBC1050120A87004F07F0028707B
:10C40000C4F3C01068702946304602F067FB002074
:10C4100070BD2DE9F04107460D461646984605F0D9
:10C420007F0000EB800107F58E7000EBC104012056
:10C43000607005F07F002070E66026610020A0613A
:10C44000C4F81480207820B92146384602F0A9F9B2
:10C4500003E02146384602F073FB0020BDE8F0817E
:10C4600030B587B00546594C284602F060F901A85E
:10C4700000F0F0FD029CE868C0680590059820F483
:10C48000705005900598E968C860284602F020FDC4
:10C4900003280BD10020A8704FF40070A8800598E5
:10C4A00020F4705000F5105005907EE00120A87037
:10C4B0004020A8804648844209D34648844206D298
:10C4C000059820F4705000F5605005906DE04148EB
:10C4D000844209D34048844206D2059820F4705023
:10C4E00000F55050059060E03B48844209D33B483A
:10C4F000844206D2059820F4705000F54050059013
:10C5000053E03648844209D33548844206D2059820
:10C5100020F4705000F53050059046E030488442D9
:10C5200009D33048844206D2059820F4705000F5B3
:10C530002050059039E02B48844209D32A48844290
:10C5400006D2059820F4705000F5105005902CE0AC
:10C550002548844209D32548844206D2059820F410
:10C56000705000F5005005901FE02048844209D328
:10C570001F48844206D2059820F4705000F5E05020
:10C58000059012E01A48844209D31A48844206D220
:10C59000059820F4705000F5C050059005E005980E
:10C5A00020F4705000F5A05005900598E968C86027
:10C5B00000200690069820F4005000F500500690E8
:10C5C0000698E9684861012007B030BD007A030A87
:10C5D000C0E1E4000024F400E0EC040100C3180111
:10C5E000002D310140A44C0100366E0140E295015E
:10C5F00080C3C90160600B02F8B505460024002025
:10C600000090284602F0A5FC064681E006F00100F5
:10C6100000287BD0E1B2284600F0F6FA009000989E
:10C6200000F0010030B3012000FA04F72869406BE4
:10C63000B8432969486300200090009820F0010069
:10C64000401C009005F1180050F82400009981600A
:10C65000E1B232480068426828469047E8780128ED
:10C6600008D13CB940F21110405D042802D128469F
:10C6700002F042F90098C0F3C00060B100200090C1
:10C68000009820F008000830009005F1180050F8DC
:10C690002400009981600098C0F3001060B1002070
:10C6A0000090009820F010001030009005F1180064
:10C6B00050F82400009981600098C0F3801060B1A8
:10C6C00000200090009820F040004030009005F1DC
:10C6D000180050F82400009981600098C0F34000D1
:10C6E00060B100200090009820F00200801C0090B3
:10C6F00005F1180050F82400009981600098C0F3FB
:10C70000C01018B12146284600F092FA641C760841
:10C71000002E7FF47BAF0120F8BD0000C800002090
:10C720007CB50446002500200190204602F019FC4B
:10C7300006466FE006F00100002869D0E9B2204605
:10C7400002F017FC0190019800F00100C8B300202E
:10C750000190019820F00100401C019004F1540068
:10C7600050F8250001998160E078012817D104F183
:10C77000540050F825000069009005EB850104F590
:10C780005D7000EBC10080680099C1F31201411A8D
:10C7900005EB850204F55D7000EBC2008161E9B232
:10C7A0001E480068026820469047E078012808D1BA
:10C7B0003DB940F21110005D052802D1204602F07B
:10C7C0009BF80198C0F3400060B1002001900198EF
:10C7D00020F00200801C019004F1540050F8250064
:10C7E000019981600198C0F3C00088B10B480068CE
:10C7F00081682046884700200190019820F00800B9
:10C800000830019004F1540050F82500019981602E
:10C810006D1C7608002E8DD101207CBDC800002043
:10C820003EB50446A07A78B1D4F80C0100680090B7
:10C83000009820F002000090009820F00100009085
:10C840000099D4F80C01016000200190019820F0BB
:10C850000100401C019020694068019988432169CA
:10C860004860094800688169204688470020029096
:10C87000029820F0004000F1004002900298E16828
:10C88000486101203EBD0000C80000207CB5044680
:10C8900000200190019820F0100010300190E06815
:10C8A000806901998843E1688861E068006A0090C6
:10C8B000009800F00F0000EB800104F55D7000EBC4
:10C8C000C1050098C0F3434007282DD2DFE800F0EF
:10C8D0002C04051D1E2C1F0027E00098C0F30A1031
:10C8E00090B10098C0F30A122046E96802F04BFBB1
:10C8F000E8680099C1F30A110844E860A869009942
:10C90000C1F30A110844A8610FE00EE00DE008220F
:10C9100004F2CC51204602F036FBA8690099C1F31D
:10C920000A110844A86100E000BF00BFE068806908
:10C9300001990843E168886101207CBD38B504464F
:10C9400008480068C1682046884700200090009889
:10C9500020F00800083000900098E168486101204C
:10C9600038BD0000C80000201FB50446002000901C
:10C970004FF48970005D00902348006841692046AB
:10C98000884720698068019000200390039820F474
:10C99000006000F5006003900398E1684861A07AA8
:10C9A00070B3019800F0010050B340F21510005D23
:10C9B000012825D19DF80000032821D100200290F4
:10C9C000029820F00100401C0290D4F80C0100688D
:10C9D00002990843D4F80C110860029820F0020074
:10C9E000801C0290D4F80C01006802990843D4F826
:10C9F0000C1108600548006840F006000349086013
:10CA0000012004B010BD0000C800002010ED00E0BF
:10CA100030B587B00446002002900690059004903F
:10CA200003900190029820F00100401C02902069C0
:10CA3000406802998843216948600021204602F03D
:10CA40001DFA00250BE0FF2104F1180050F8250025
:10CA5000816004F1540050F8250081606D1C6078FD
:10CA6000A842F0D84FF0FF312069816106986FF33A
:10CA70000F00401C0690069880B200F580300690AA
:10CA800006992069C161059820F0080008300590DA
:10CA9000059820F00100401C0590059820F0020048
:10CAA000801C0590059920694161049820F00100DF
:10CAB000401C0490049820F008000830049004986A
:10CAC00020F00200801C0490049920690161206913
:10CAD00000680390039820F4FE6003900399206996
:10CAE0000160204601F008FF00200190019820F429
:10CAF000805000F5805001900198E1684861044839
:10CB00000068016920468847012007B030BD000059
:10CB1000C80000202DE9F04106460F463946304650
:10CB200002F046FA01214FF4897081550021801CE2
:10CB30008155002511E005EB850106F58E7000EBAF
:10CB4000C104012060702570E5800020E070402065
:10CB5000A0600020E06060616D1C7078A842EAD897
:10CB6000002510E005EB850106F55D7000EBC104C2
:10CB7000002060702570E580E0704020A0600020FB
:10CB8000E06060616D1C7078A842EBD8304601F01F
:10CB9000BDFD304601F0E9FB0021304602F072FA9B
:10CBA000304601F075FC304602F030F9BDE8F08106
:10CBB00038B504460020009007480068C169204647
:10CBC0008847009820F4801000F5801000900098AD
:10CBD000E1684861012038BDC800002038B504462E
:10CBE0000020009007480068016A204688470098A6
:10CBF00020F4001000F5001000900098E1684861F2
:10CC0000012038BDC800002030B5024615692B69E7
:10CC100015696C6B24FA01F505F0010543EAC513AB
:10CC200002F1180555F82150AD6805EA030030BD42
:10CC30002DE9F84306460F4600250020009007EB3B
:10CC4000870106F58E7000EBC104D4E90501451A91
:10CC5000A068A84200D2A568E81C4FEA900806F137
:10CC6000180050F827008069009029E0D4E90501F8
:10CC7000451AA068A84200D2A568E81C4FEA9008AF
:10CC8000ABB2FAB23046E16802F03FFAE0682844FD
:10CC9000E060A0692844A06106F1180050F8270060
:10CCA00080690090D4E90501884209D121780120EA
:10CCB00000FA01F93069406B20EA090031694863E4
:10CCC000009880B2404506D9D4E90510884202D2C6
:10CCD00060690028CAD10120BDE8F88370470000D0
:10CCE0000149086070470000143C014000212349BD
:10CCF0008279002A3AD00A46126803689A430B46A2
:10CD00001A600A1D126803689A430B1D1A600279A3
:10CD100011440A6803681A430A60184A0832126804
:10CD200003689A43154B08331A601A1D126803688A
:10CD30009A43124B0C331A604279102A0ED11A1FF3
:10CD4000126803681A430D4B08331A601A1D1268E3
:10CD500003681A43094B0C331A600DE00749427906
:10CD600011440A6803681A430A6005E00279114415
:10CD70000A6803689A430A6070470000003C01405B
:10CD8000F0B50A4600210023002400BF3DE0012544
:10CD900005FA01F3156805EA03049C4234D10568DD
:10CDA0004F000326BE40B543056015794E00B540DF
:10CDB0000668354305601579012D02D01579022DDD
:10CDC00016D185684F000326BE40B543856055796E
:10CDD0004E00B540866835438560456801268E4023
:10CDE000B5434560456896798E40B6B23543456097
:10CDF000C5684F000326BE40B543C560D5794E00D7
:10CE0000B540C6683543C560491C1029BFD3F0BD85
:10CE1000F0B5002300244D07ED0E02FA05F3CE1005
:10CE200000F1200555F826504E07F70E0F26BE409C
:10CE3000B543CF1000F1200646F82750CE1000F180
:10CE4000200555F8265045EA0304CE1000F12005D0
:10CE500045F82640F0BD000070B50A480468001D82
:10CE60000568001D0668344454B10822064920466E
:10CE700000F00EF8042204491031284600F008F8AA
:10CE800070BD0000107AFF1F6E00002000BFFEE79B
:10CE900030B50B46002100BF16E00A24B4EB107F2A
:10CEA00005D9302404EB107403F8114005E0412447
:10CEB00004EB10740A3C03F81140000100254C00FB
:10CEC000641C1D554C1CE1B29142E6DB30BD00BF35
:10CED000FEE7704770B5002100230F22C4781CB311
:10CEE000174C246804F4E064C4F5E064C4F307213B
:10CEF000C1F10404E3B20A4144789C40E1B2847871
:10CF0000144021430C07210E0E4C0578615504781E
:10CF100004F01F050124AC4005786D11AD0005F14A
:10CF2000E025C5F8004109E0047804F01F0501245C
:10CF3000AC40054D0678761145F8264070BD0000DE
:10CF40000CED00E000E400E080E100E00249014374
:10CF5000024A1160704700000000FA050CED00E085
:10CF600010B5024800F093FD10BD000070010020D4
:10CF700010B51548807A10B31448006820F00600F8
:10CF800012490860012000F001F900BF312000F0D3
:10CF9000D5F80028FAD0012000F000F900BF3920B0
:10CFA00000F0CCF80028FAD0022000F0FDF800BF15
:10CFB00000F0E4F80828FBD1034802F08AF84FF4A7
:10CFC0008020FFF78DFE10BD7001002010ED00E005
:10CFD0007047000029B1064A12680243044B1A60E8
:10CFE00004E0034A12688243014B1A607047000054
:10CFF0003038024029B1064A12680243044B1A60D5
:10D0000004E0034A12688243014B1A607047000033
:10D010003438024029B1064A12680243044B1A60B0
:10D0200004E0034A12688243014B1A607047000013
:10D030004038024029B1064A12680243044B1A6084
:10D0400004E0034A12688243014B1A6070470000F3
:10D0500044380240F0B500210022002402250026B9
:10D060000223324F3F6807F00C0121B1042905D09B
:10D07000082937D105E02E4F076036E02D4F0760B5
:10D0800033E02A4F3F1F3F68C7F38056274F3F1FAB
:10D090003F6807F03F036EB1264FB7FBF3F7DFF8A9
:10D0A0008CC0ACF1040CDCF800C0CCF3881C07FB8E
:10D0B0000CF40CE01E4FB7FBF3F7DFF870C0ACF1D7
:10D0C000040CDCF800C0CCF3881C07FB0CF4174FF1
:10D0D0003F1F3F68C7F301477F1C7D00B4FBF5F796
:10D0E000076002E0124F076000BF00BF0F4F3F68AC
:10D0F00007F0F0010909104F7A5C0768D7404760D4
:10D100000A4F3F6807F4E051890A0B4F7A5C476881
:10D11000D7408760054F3F6807F46041490B064FD1
:10D120007A5C4768D740C760F0BD0000083802400D
:10D130000024F40000127A000000002010B501461F
:10D140000022002300204A11012A02D10A4C236840
:10D1500008E0022A03D1084C7034236802E0064C30
:10D160007434236801F01F02012494401C400CB168
:10D17000012000E0002010BD003802400248006895
:10D1800000F00C0070470000083802400021024AFD
:10D190001170114608707047023802400149086654
:10D1A000704700000000474201460020034A106813
:10D1B00020F0030008431060704700000838024068
:10D1C000704700000CB500200190009034480068C2
:10D1D00040F480303249086000BF3148006800F4F4
:10D1E000003000900198401C0190009818B90198F7
:10D1F000B0F5A04FF1D12A48006800F4003010B11A
:10D200000120009001E0002000900098012846D104
:10D2100023484030006840F0805021494031086088
:10D220002048006840F440401E4908601C4808300F
:10D2300000681B49083108600846006840F4004057
:10D2400008600846006840F4A05008601648091FAE
:10D250000860081F006840F08070091F086000BF68
:10D260000F48006800F000700028F9D040F2057007
:10D270000E4908600A480830006820F00300084999
:10D28000083108600846006840F00200086000BFEE
:10D2900003480830006800F00C000828F8D10CBDE5
:10D2A000003802400070004008544007003C024033
:10D2B0007047000010B51548006840F4700013492D
:10D2C00008601348006840F0010011490860002020
:10D2D0000F49083108600E4800680E4908400C49A3
:10D2E00008600D48091D0860081F006820F48020B0
:10D2F000091F0860002006490C310860FFF762FF33
:10D30000064802498039086010BD000088ED00E041
:10D3100000380240FFFFF6FE1030002400C0000875
:10D3200070B504460D46D4F8E40529464268204607
:10D330009047002070BD70B504460D464FF48970CB
:10D34000005D022802D0032812D100E000BF6888E7
:10D3500001280CD100214FF48C700151D4F8E40560
:10D360002946826820469047204600F05EF804E097
:10D370002946204600F021F800BF00BF70BD2DE90E
:10D38000F04106460C46154600272B462246002152
:10D390003046FEF7E3FF3846BDE8F0812DE9F04165
:10D3A00006460C46154600272B46224600213046ED
:10D3B000FFF72FF83846BDE8F08170B504460D46FA
:10D3C00080212046FFF701F800212046FEF7FDFFEF
:10D3D000204601F091FA70BD70B504460025052184
:10D3E00040F21110015500231A4619462046FEF757
:10D3F000B5FF204601F080FA284670BD2DE9F041C6
:10D4000004460E4615460027C4F83C51C4F838516E
:10D41000022140F2111001552B46324600212046D0
:10D42000FEF7F7FF3846BDE8F08170B504460025E9
:10D43000042140F21110015500231A4619462046D6
:10D44000FEF7E7FF204601F057FA284670BD70B599
:10D4500005460E46002E5DD105F58E7440F2111082
:10D46000405D022849D1A168E069884217D9A168C6
:10D47000E069401AE061E878012803D1D4E902109C
:10D480000844E060A08B82B22846E168FFF786FF7F
:10D4900000231A4619462846FEF760FF2DE0A168D2
:10D4A000206AB0FBF1F201FB1200A8B9A168206A62
:10D4B000884211D3D4E9080188420DD200221146D6
:10D4C0002846FFF76BFF0020606200231A461946CA
:10D4D0002846FEF743FF10E0D5F8E405C06848B1E0
:10D4E0004FF48970405D032804D1D5F8E405C16884
:10D4F000284688472846FFF76FFF4FF48B70405D42
:10D50000012816D1284600F07FFB00214FF48B70D4
:10D5100041550EE0D5F8E405406950B14FF48970EB
:10D52000405D032805D1D5F8E40531464269284617
:10D530009047002070BD70B505460E46A6BB05F5A8
:10D540005D7440F21110405D03283DD1A168E0698F
:10D55000884217D9A168E069401AE061E87801289B
:10D5600003D1D4E902100844E060A368E06998425E
:10D5700001D2E06900E0A06882B22846E168FFF7C6
:10D58000FEFE21E0D5F8E405006948B14FF489704A
:10D59000405D032804D1D5F8E40501692846884791
:10D5A0002846FFF742FF0FE0FFE7D5F8E405806962
:10D5B00050B14FF48970405D032805D1D5F8E405DA
:10D5C0003146826928469047002070BD0146002000
:10D5D0007047000070B504460D46E888012804D065
:10D5E00029462046FFF7E9FE1AE04FF48970005DF6
:10D5F000022802D003280DD105E001220949204666
:10D60000FFF7FCFE0BE0012204F588712046FFF7CE
:10D61000F5FE04E029462046FFF7CFFE00BF00BF1D
:10D6200070BD00008C000020F8B504460E46F0885E
:10D63000009070880012082862D2DFE800F06104D0
:10D640000C186161575CA078D4F8EC150A6869463B
:10D650009047054659E0A078D4F8E4158A6A6946EF
:10D660009047054602216970C4F8F0554DE0B07846
:10D67000062834D2DFE800F0030B131B232BA0781D
:10D68000D4F8EC154A686946904705462CE0A07826
:10D69000D4F8EC158A6869469047054624E0A078DE
:10D6A000D4F8EC15CA686946904705461CE0A07896
:10D6B000D4F8EC150A6969469047054614E0A0784D
:10D6C000D4F8EC154A696946904705460CE0A07805
:10D6D000D4F8EC158A6969469047054604E031465E
:10D6E0002046FFF76AFEF8BD00BF0EE03146204637
:10D6F000FFF763FEF7E731462046FFF75EFEF2E7ED
:10D7000031462046FFF759FEEDE700BFBDF80000A7
:10D7100088B1F08878B1F088BDF80010884202DD49
:10D72000BDF8000000E0F0880090BDF80020294618
:10D730002046FFF763FE00BFD5E70146002002E068
:10D74000421CD0B2491C0A78002AF9D17047000067
:10D7500070B504460D464FF48970005D022802D072
:10D76000032813D100E000BF01200C4908604FF4EA
:10D770008C70005920B10846006840F00200086033
:10D78000022206492046FFF739FE04E029462046DA
:10D79000FFF713FE00BF00BF70BD00009000002027
:10D7A0002DE9F04104460D4617460026FCB12046FF
:10D7B000FFF7C3FF022101EB400038803A78304682
:10D7C000711CCEB22A5403223046711CCEB22A54A8
:10D7D0000AE014F8012B3046711CCEB22A54002204
:10D7E0003046711CCEB22A5420780028F1D1BDE811
:10D7F000F08170B504460D4681212046FEF768FD94
:10D80000002070BD70B504460D4681212046FEF70C
:10D8100016FD002070BD000002462220088001484D
:10D82000704700000401002038B50020009000245B
:10D8300000252B4801F099FC2A480078052807D1DB
:10D8400000202849087028480078401C26490870A4
:10D850002548007830B9234804780078401C2149D5
:10D860000870002520480078012806D11D48057859
:10D870000078401C1B49087000241B4800780228CF
:10D8800008D1184801780078401C164A10704842A8
:10D89000C4B2002514480078032808D11148017843
:10D8A0000078401C0F4A10704842C5B200240E4850
:10D8B0000078042804D100200B49087000240025BA
:10D8C00000208DF800008DF801408DF802508DF891
:10D8D000030004226946054800F015F838BD000031
:10D8E000FFFF0F002D0000202C0000207001002001
:10D8F00070B504460D460323042281212046FEF71D
:10D90000F9FC002070BD70B506460C4615464FF474
:10D910008970805D032805D12B462246812130463F
:10D92000FEF777FD002070BD2DE9F04105460C465D
:10D9300000260027207800F0600040B320285FD147
:10D940006078022814D0032807D00A280BD00B28AF
:10D9500014D1A0782F49086017E001222D492846EC
:10D96000FFF74CFD11E0608800122B4908600CE0C5
:10D97000012229492846FFF741FD06E021462846B5
:10D98000FFF71BFD0220BDE8F08100BF3EE060789C
:10D99000062804D00A2823D00B282BD126E0608843
:10D9A0002221B1EB202F08D1E0884A2801DD4A204E
:10D9B00000E0E0880646194F0CE060882121B1EBB9
:10D9C000202F07D1164FE088092801DD092000E04B
:10D9D000E0880646324639462846FFF70FFD0DE03F
:10D9E000012210492846FFF709FD07E0A0780D49FC
:10D9F000086003E0A0780B49086000BF00BF05E0A5
:10DA0000012208492846FFF7F9FC00BF00BF0020AB
:10DA1000B9E70000FC0000200001002026010020E2
:10DA200016010020F80000202DE9F04104460F46C1
:10DA300015461E46DDF81880204600F0FDFB204606
:10DA4000FFF7C4FDC4F8E465C4F8E885C4F8EC55F4
:10DA500039462046FFF75EF8D4F8E8150868804795
:10DA6000204600F0D3FBBDE8F08110B50446D4F8A1
:10DA7000E405016A20468847002010BD10B5044621
:10DA8000D4F8E405416A20468847002010BD7CB5E3
:10DA900005460024284601F049FA002865D02846AA
:10DAA00001F04FFA0190019808B900207CBD01985F
:10DAB000C0F3C04018B12846FEF732FE0443019877
:10DAC000C0F3804018B12846FEF796FD0443019844
:10DAD000C0F3400050B100200090009820F00200F8
:10DAE000801C00900098E968486100BF0198C00F51
:10DAF00018B12846FEF794FE04430198C0F3C020F5
:10DB000018B12846FEF730FF04430198C0F3C00067
:10DB100018B12846FEF712FF04430198C0F3001025
:10DB200018B12846FEF7B2FE04430198C0F3003056
:10DB300018B12846FEF76CFF04430198C0F340304B
:10DB400018B12846FEF78CFC04430198C0F300503E
:10DB500018B12846FFF72CF804430198C0F3405051
:10DB600018B12846FFF73AF8044320469EE790F89C
:10DB7000CC250A7090F8CD254A7090F8CE3590F8F3
:10DB8000CF2503EB02224A8090F8D03590F8D125BA
:10DB900003EB02228A8090F8D23590F8D32503EB6C
:10DBA0000222CA80CB884FF4A0721350012340F2A6
:10DBB00011121354704710B5044600234022194631
:10DBC0002046FEF797FB0023402280212046FEF7E7
:10DBD00091FB01214FF489700155A078D4F8E82514
:10DBE00051688847002010BD10B50446D4F8E815E8
:10DBF0000869804740F21310015D401E0155032162
:10DC00000155002010BD0000014603480268086964
:10DC100042600020704700009800002010B50446C4
:10DC2000D4F8E405C06920B1D4F8E405C169204600
:10DC30008847002010BD70B504460D46A88818BB63
:10DC4000E88808BBA87800F07F064FF48970005D73
:10DC5000032804D129462046FFF7AFFB18E04FF414
:10DC60008A70065531462046FEF7A1FB2046FFF795
:10DC7000DCFB26B102214FF48970015508E0012137
:10DC80004FF48970015503E029462046FFF795FBC4
:10DC900070BD70B504460D46D4F8E4052946026807
:10DCA00020469047D4F8E81588688047002070BD6A
:10DCB00070B504460D46A8783049087008460078CB
:10DCC000012804DD29462046FFF777FB55E04FF495
:10DCD0008970005D022802D0032848D117E0274848
:10DCE000007880B12548007884F8100103214FF4B2
:10DCF00089700155214801782046FFF7CAFF204668
:10DD0000FFF793FB02E02046FFF78FFB34E01B4850
:10DD1000007880B902214FF48970015517480078C6
:10DD200084F81001154801782046FFF7F9FA2046DB
:10DD3000FFF77BFB1AE094F810011049097888423C
:10DD400011D094F810112046FFF7EAFA0B4800783A
:10DD500084F81001094801782046FFF79AFF204611
:10DD6000FFF763FB02E02046FFF75FFB04E0294674
:10DD70002046FFF722FB00BF00BF70BD94000020CB
:10DD8000F8B504460D460026688801280DD101210A
:10DD90004FF48C700151D4F8E4052946826820467E
:10DDA00090472046FFF741FB3FE0688802283CD1BE
:10DDB0002879D0BB206940680090A8880612062EFA
:10DDC00022D2DFE806F02103090F151B009820F08E
:10DDD0007000103000901DE0009820F0700020309E
:10DDE000009017E0009820F070003030009011E0B3
:10DDF000009820F07000403000900BE0009820F078
:10DE000070005030009005E0009820F07000103055
:10DE1000009000BF00BF05480099016001214FF448
:10DE20008B7001552046FFF700FBF8BD98000020DD
:10DE30001CB5044669462046FFF799FE9DF8000090
:10DE400000F01F0020B1012807D002280FD109E0FF
:10DE50006946204600F016F811E06946204600F0B9
:10DE600007F90CE06946204600F046F807E09DF807
:10DE7000000000F080012046FEF7A7FA00BF00BFB7
:10DE800000201CBD70B505460C46002660780A28A7
:10DE900029D2DFE800F01923281E280A0528140FCC
:10DEA00021462846FFF7C0FB22E021462846FFF71F
:10DEB000C2FE1DE021462846FFF7FAFE18E0214683
:10DEC0002846FFF787FB13E021462846FFF740FC72
:10DED0000EE021462846FFF753FF09E02146284679
:10DEE000FFF729FA04E021462846FFF766FA00BF4B
:10DEF00000BF304670BD00002DE9F04105460E46DA
:10DF000000273479307800F06000202808D1D5F857
:10DF1000E40531468268284690473846BDE8F081DE
:10DF20007078002857D001282BD0032875D14FF4E2
:10DF30008970405D022802D003281BD107E02CB174
:10DF4000802C03D021462846FEF73FFA17E0708860
:10DF500030B92CB1802C03D021462846FEF735FA83
:10DF6000D5F8E40531468268284690472846FFF7F1
:10DF70005CFA04E031462846FFF71FFA00BF00BFF5
:10DF800070E04FF48970405D022802D003281BD155
:10DF900007E02CB1802C03D021462846FEF715FA65
:10DFA00017E0708878B95CB1802C09D021462846EA
:10DFB000FEF76AF9D5F8E4053146826828469047AD
:10DFC0002846FFF732FA04E031462846FFF7F5F914
:10DFD00000BF00BF46E04FF48970405D022802D0C8
:10DFE000032837D107E02CB1802C03D021462846E6
:10DFF000FEF7EBF933E004F08000802812D104F042
:10E000007F0000EB800105F58E7000EBC100807889
:10E0100020B101201549086016E022E000201349D4
:10E02000086011E004F0800070B904EB840105F58C
:10E030005D7000EBC100807818B101200B490860C9
:10E0400002E0002009490860022208492846FFF73B
:10E05000D5F904E031462846FFF7AFF900BF00BF0D
:10E0600000E000BF00BF384658E7000088000020ED
:10E0700070B504460D4600264FF48970005D0328F4
:10E0800014D1287901280CDCD4F8E40529468268EB
:10E0900020469047E88840B93EB92046FFF7C5F9C9
:10E0A00003E029462046FFF788F904E02946204688
:10E0B000FFF783F900BF00BF304670BD10B50446BE
:10E0C0004FF48970015D401C01550421401E01552B
:10E0D000D4F8E815C8688047002010BD70B5054623
:10E0E0000C462DB92246064906A0FFF759FB04E06D
:10E0F0002246034903A0FFF753FB014870BD00000F
:10E100006407002048494420436F6E666967000039
:10E11000704770470246122008800148704700008F
:10E120004C000020704770477047704770470000F0
:10E1300070B505460C462DB92246064906A0FFF7E4
:10E140002FFB04E02246034903A0FFF729FB014807
:10E1500070BD00006407002048494420496E746582
:10E160007266616365000000024604200880014871
:10E17000704700006800002070B505460C46224636
:10E18000024903A0FFF70CFB004870BD64070020A4
:10E1900053544D6963726F656C656374726F6E6919
:10E1A0006373000070B505460C462DB9224606493A
:10E1B00006A0FFF7F5FA04E02246034908A0FFF79E
:10E1C000EFFA014870BD0000640700204A6F7973C0
:10E1D0007469636B20696E204853206D6F6465001D
:10E1E0004A6F79737469636B20696E204653204DC2
:10E1F0006F64650070B505460C461A202080FEF756
:10E200002BFE014870BD00006C00002038B50446AC
:10E210004FF4C060FEF79AFE43208DF80000012005
:10E220008DF8010003208DF8020001208DF8030015
:10E230006846FEF74FFE38BD10B586B00446012192
:10E240000846FEF7C7FE4FF4C850049003208DF82F
:10E25000150002208DF8140000208DF816008DF8AE
:10E26000170004A93648FEF78BFD0A22082134481E
:10E27000FEF7CEFD0A220B213148FEF7C9FD0A2226
:10E280000C212F48FEF7C4FD4FF4007004900320CA
:10E290008DF8150000208DF814008DF8160001206F
:10E2A0008DF8170004A92648FEF76AFD4FF4806038
:10E2B000049002208DF8140003208DF8150004A9A5
:10E2C0001F48FEF75DFD0A2211461D48FEF7A0FD1E
:10E2D00001218803FEF7AEFE01218020FEF78AFEB1
:10E2E00001210807FEF796FE4FF48020FEF7F8FCA8
:10E2F0004FF48020029000208DF80C0008208DF84B
:10E300000D0001208DF80E0002A8FEF7EFFC4FF47F
:10E310008020FEF7E5FC2A208DF8040001208DF80E
:10E32000050005208DF8060001208DF8070001A8E2
:10E33000FEF7D0FD4FF48020FEF7D2FC06B010BDF2
:10E340000000024000B503464FF47A7103FB01F070
:10E3500000F001F800BD00EBC002C2EB801100BF6D
:10E360004A1E111E00D17047FAE73EB5044600254B
:10E370000020029001900090207A01283DD1E068B1
:10E38000806B0190019820F480300190607A28B170
:10E39000019820F4801000F5801001900198E16848
:10E3A000886300200290E068C0680290029820F024
:10E3B00040000290029820F480000290029820F41D
:10E3C00000300290029820F4002002900298E16848
:10E3D000C860204600F062F9E078012843D1009837
:10E3E00020F01E000A300090009820F0200020301D
:10E3F00000900098E168886035E0E068C0680290AD
:10E40000029820F04000403002900298E168C86015
:10E41000204600F043F900200190019820F480305C
:10E4200000F580300190019820F4802000F58020D4
:10E430000190019820F4002000F50020019001983F
:10E4400020F4001000F500100190607A28B10198C6
:10E4500020F4801000F5801001900198E168886335
:10E460001420FFF76FFFE07801280FD1E068806883
:10E470000090009820F01E000A300090009820F0D4
:10E480002000203000900098E168886028463EBD5A
:10E4900070B588B0044600260020079006900590CD
:10E4A000049003900021D4F80C01016020690068F9
:10E4B0000690069820F4C0500690069920690160E5
:10E4C000E07A01283DD10321204600F023FD802081
:10E4D000E1684862059880B200F5800005900598D3
:10E4E0006FF30F00803005900598E1688862059809
:10E4F00000EB1041049861F30F000490049880B27F
:10E5000000F5000004900498E168C1F80401049843
:10E5100000EB104161F30F000490049880B2049066
:10E520000499E068C0F80811049800EB104161F309
:10E530000F000490049880B204900499E068C0F839
:10E540000C111021204600F099FC204600F070FCD0
:10E5500000212069016120694161491E20698161B2
:10E5600000212069C16100252CE004F1180050F859
:10E570002500006807900798C00F70B10020079031
:10E58000079820F0804000F180400790079820F025
:10E59000006000F10060079001E00020079004F1A6
:10E5A000180050F8250007990160002104F11800B7
:10E5B00050F825000161FF2104F1180050F82500F2
:10E5C00081606D1C6078A842CFD800252CE004F152
:10E5D000540050F82500006801900198C00F70B1F8
:10E5E00000200190019820F0804000F180400190CF
:10E5F000019820F0006000F10060019001E000202F
:10E60000019004F1540050F82500019901600021A7
:10E6100004F1540050F825000161FF2104F1540079
:10E6200050F8250081606D1C6078A842CFD800208A
:10E630000390039820F4807000F5807003902069A7
:10E64000006903998843084321690861E07801283B
:10E650001DD100200290029820F00100401C029081
:10E66000029820F00200801C02904021029861F381
:10E670008A000290029820F4803000F580300290E9
:10E68000029861F359400290029920690163204683
:10E6900000F06FFB304608B070BD0000F8B50446CE
:10E6A000002600250020009000BF0320FFF753FE46
:10E6B000E06800690090681C05461349884201D94A
:10E6C0000020F8BD0098C00F0028EED0002500986B
:10E6D00020F00100401C00900098E168086100BF34
:10E6E000E06800690090681C05460749884200D927
:10E6F00004E0009800F001000028F1D100BF0320E1
:10E70000FFF729FE3046DCE7400D030008B501465F
:10E71000002000220092009A22F00102521C009276
:10E72000CA689268009B9A43CB689A6008BD0EB590
:10E7300001460020002200920A69926802928A69CA
:10E7400012680192029AC2F3410232B1012A05D045
:10E75000022A09D0032A0DD101E000BF00BF019AAF
:10E760006FF30A0201920AE0019A6FF30A02D21CC7
:10E77000019204E0019A6FF30A02019200BF00BF08
:10E78000019B8A691360009A22F4807202F58072FC
:10E7900000920A695268009B9A431A430B695A60B7
:10E7A0000EBDFCB502460020002400250195009511
:10E7B0004D78012D52D193691D6801951D69009511
:10E7C0004D6955B9009D25F07F050095009D25F404
:10E7D000002505F50025009516E08E684D69B542C7
:10E7E00007D98D684D610E7A009D66F30605009588
:10E7F00004E00E7D009D66F306050095009D25F45E
:10E80000002505F500250095009D1D61D578012D99
:10E8100006D10F7802F1180555F827500E696E6180
:10E82000019D25F0806505F180650195019D25F02C
:10E83000004505F100450195019D1D60D578002D2D
:10E8400059D14D69002D56D00E780125B5402C4385
:10E8500015696D6B2543166975634CE00E7802F1FE
:10E86000540555F826502D6801950E7802F154058F
:10E8700055F826502D6900954D695DB90E7A009DB9
:10E8800066F306050095009D25F4002505F5002595
:10E8900000950CE08D684D610E7A009D66F30605CB
:10E8A0000095009D25F4002505F5002500950F78BD
:10E8B00002F1540555F82750009E2E61D578012DA0
:10E8C00006D10F7802F1540555F827500E696E6194
:10E8D000019D25F0806505F180650195019D25F07C
:10E8E000004505F1004501950F7802F1540555F8F2
:10E8F0002750019E2E60FCBD0CB5002101910199AD
:10E9000021F0C04101F1C0410191019921F40021A0
:10E9100001F500210191019921F07F011831019148
:10E92000019A416D0A61C178012915D10021009138
:10E9300000F2CC51426D5161416D0968009100991E
:10E9400021F0004101F1004100914FF08021009140
:10E95000009A416D0A6000BF0CBD3CB50246002024
:10E960000024019400944C78012C0CD10D7802F114
:10E97000180454F825300D780124AC40009D64F350
:10E980000F0500950BE00D7802F1540454F8253082
:10E990000D780124AC40009D64F31F4500951C6870
:10E9A0000194019CC4F3C034E4B90D89019C65F362
:10E9B0000A040194CD78019C65F3934401948D7908
:10E9C000019C65F399540194019C24F0805404F156
:10E9D00080540194019C24F4004404F50044019403
:10E9E000019C1C601469E469009D2C431569EC616D
:10E9F0003CBD38B503460020002400944C78012C1F
:10EA000005D10D7803F1180454F8252004E00D78A1
:10EA100003F1540454F8252014680094009C24F455
:10EA200000140094CC78032C02D0CC78022C05D1B1
:10EA3000009C24F0805404F180540094009C1460E5
:10EA400038BD3CB5024600204B78012B22D10C7812
:10EA500002F1180353F824301B680193019BDB0F6C
:10EA600073B100230193019B23F0804303F18043A2
:10EA70000193019B23F0006303F10063019301E024
:10EA8000002301930D7802F1180353F82530019CFF
:10EA90001C6022E00C7802F1540353F824301B6808
:10EAA0000093009BDB0F73B100230093009B23F0C6
:10EAB000804303F180430093009B23F0006303F144
:10EAC0000063009301E0002300930D7802F15403EA
:10EAD00053F82530009C1C6000BF3CBD38B5034690
:10EAE0000A460020002400945478012C18D115788F
:10EAF00003F1180454F825100C680094009CE40FEE
:10EB00002CB1009C24F0804404F180440094009CCB
:10EB100024F4001404F500140094009C0C600EE032
:10EB2000157803F1540454F825100C680094009CE7
:10EB300024F4001404F500140094009C0C6038BD0B
:10EB4000FEB505460C4600260027002002900190E5
:10EB5000607801287ED1217805F1180050F8210055
:10EB600000680290217805F1180050F82100006932
:10EB70000190606948B901986FF31200019001217A
:10EB8000019861F3DC40019017E06169019861F33D
:10EB9000120001906069401EA1680844B0FBF1F1C9
:10EBA000019861F3DC400190E078012805D10198DB
:10EBB00020F0C04000F100500190227805F11800CB
:10EBC00050F8220001990161E878012807D12278E4
:10EBD00005F1180050F82200216941610DE0E0784C
:10EBE00001280AD0606940B12178012000FA01F7BC
:10EBF0002869406B384329694863E078012813D1BC
:10EC00002869806800900098C0F3002030B902980D
:10EC100020F0005000F10050029005E0029820F032
:10EC2000805000F180500290029820F0806000F146
:10EC300080600290029820F0004000F100400290B5
:10EC4000227805F1180050F8220002990160E0785E
:10EC5000012800E008E070D1A08A83B2227828461B
:10EC6000E16800F052FA68E0217805F1540050F8AC
:10EC7000210000680290217805F1540050F821002D
:10EC800000690190606950B9A168019861F31200B0
:10EC900001900121019861F3DC40019017E0A06828
:10ECA000401E61690844A168B0FBF1F1019861F36D
:10ECB000DC4001900198C0F3C940A1684843019924
:10ECC00060F3120101910198C0F312006061227893
:10ECD00005F1540050F8220001990161E8780128FB
:10ECE00006D1227805F1540050F8220021694161D3
:10ECF000E07801280ED1607930B1029820F0005000
:10ED000000F10050029005E0029820F0805000F1E0
:10ED100080500290029820F0806000F180600290A4
:10ED2000029820F0004000F100400290227805F1A6
:10ED3000540050F82200029901603046FEBD08B52B
:10ED400000210091491EC26851606FF08041C26885
:10ED50005161009921F0004101F1004100910099B9
:10ED600021F4006101F5006100910099C268916190
:10ED700008BD38B50446002500200090E168886190
:10ED80006FF08040E16848612046FFF7D8FFE078E7
:10ED900020B9009820F0100010300090009820F466
:10EDA000006000F500600090009820F4805000F5AD
:10EDB00080500090009820F4005000F50050009022
:10EDC000009820F4802000F580200090009820F426
:10EDD000002000F500200090009820F00800083086
:10EDE0000090009820F4801000F5801000900098AA
:10EDF00020F4001000F500100090E0688069009990
:10EE000088430843E1688861284638BD08B5014653
:10EE1000002000220092009A22F00102521C00926F
:10EE2000CA689268009B1A43CB689A6008BD0000CC
:10EE3000F8B504460025002600200090009820F038
:10EE40001000103000900098E168086100BFE06891
:10EE500000690090701C06460749884200D904E00A
:10EE60000098C0F300100028F1D100BF0320FFF785
:10EE700072FA2846F8BD0000400D0300F8B50446BC
:10EE80000D460026002700200090009820F020006A
:10EE900020300090009865F38A1000900098E16897
:10EEA000086100BFE06800690090781C07460749C8
:10EEB000884200D904E00098C0F340100028F1D146
:10EEC00000BF0320FFF747FA3046F8BD400D0300AE
:10EED00008B5014600200A6992680092009AC2F3C0
:10EEE000410232B1012A06D0022A07D0032A07D1F3
:10EEF00002E0032006E000BF022003E0012001E061
:10EF0000022000BF00BF08BD0146C868406900F08C
:10EF10000100704708B5026912680092009A61F317
:10EF200001020092009B0269136008BD00B5024611
:10EF30001046FFF7E9FF012801D0012000BD0020A5
:10EF4000FCE701460020CA685069CA68926910400F
:10EF500070470146086982690869C069024090B239
:10EF600070470146086982690869C0690240100C4F
:10EF70007047024602F1540353F821309868136930
:10EF80005B6918407047F0B503460024D01CC717D2
:10EF900000EB9777BD10D3F8D06000BF03E0306876
:10EFA0000860091D641CAC42F9D30846F0BD00009E
:10EFB00070B502460C46002300200025D5700125BF
:10EFC000957040259580012C0ED14FF0A04301256E
:10EFD000D57208251570042555709D15D58002251C
:10EFE0001572012595720AE04CB9254B0025D572A2
:10EFF0000C251570062555704FF4A065D580D3609B
:10F0000003F500651561002110E003F5106505EBBF
:10F01000411602F1180545F8216003F5306505EB4E
:10F02000411602F1540545F82160491C55788D427E
:10F03000EBD803F5806555614035C2F8CC5000210E
:10F0400008E003F5A06505EB411602F1900545F8CF
:10F050002160491C15788D42F3D8002108E003F5A2
:10F06000805505EB013602F1D00545F82160491CB9
:10F0700015788D42F3D803F56065C2F80C5170BD68
:10F0800000000440F8B504460D460026E068C0685C
:10F090000090009820F000500090009820F08040F0
:10F0A0000090012D06D1009820F0005000F1005092
:10F0B000009006E02DB9009820F0804000F18040DB
:10F0C00000900098E168C8603220FFF73BF93046B5
:10F0D000F8BD0CB5817AB9B10169896801910199CE
:10F0E00001F0010179B1D0F80C1109680091009983
:10F0F00021F002010091009921F001010091009A94
:10F10000D0F80C110A6000BF0CBD2DE9F041044697
:10F110004FF0000C00270025E07890B9D81C4FEA8A
:10F12000E07800EB98784FEAA80704F1D00050F897
:10F13000226000BF03E008683060091D6D1CBD42FD
:10F14000F9D36046BDE8F08100BFFEE702E008C8E1
:10F15000121F08C1002AFAD170477047002001E051
:10F1600001C1121F002AFBD17047002100E0491C99
:10F170008142FCD37047000008B50648064B074A99
:10F18000012100900648FEF74FFC01E0FEF74CFB22
:10F19000FCE7000010000020CC0000203000002020
:10F1A00070010020C4F10008000000207001000080
:10F1B000E4C10008C0F2000870010020380E000011
:10F1C0005CF10008412D0102030404170607080939
:10F1D0002DE11B0827041A11041A2B041A29041AFA
:10F1E00013041A2504411A15081A69041A79041A15
:10F1F000A5041AF50413DDE01B08310813120132CF
:10F20000021640830410571A02524C010A061212C9
:10F2100001072E040309041A031337D51C084FD421
:10F220005C12DE14081DDC1408B7DB1B08BD6C1A69
:10F23000E908136BDA1B087D0481229C1420F1D8A5
:10F240001B0805048B29D9188BF3D70C811A1924B4
:10F25000C11409022213010125E03209041501033A
:10F26000010215092111011401224A160705810323
:10F2700004100B0A05010902A1010901A1100805EA
:10F28000091901290315180F25019503750181023C
:10F29000950175058101202817300931093815813C
:10F2A000257F750895038106C0093C05FF090129E2
:10F2B000000E0075019502B12275069501B101C0DD
:040000050800C189A5
:00000001FF
